{
  "contractName": "Voting",
  "abi": [
    {
      "inputs": [],
      "stateMutability": "nonpayable",
      "type": "constructor"
    },
    {
      "inputs": [
        {
          "internalType": "uint256",
          "name": "",
          "type": "uint256"
        }
      ],
      "name": "candidate",
      "outputs": [
        {
          "internalType": "uint256",
          "name": "nominationNumber",
          "type": "uint256"
        },
        {
          "internalType": "string",
          "name": "candidateName",
          "type": "string"
        },
        {
          "internalType": "string",
          "name": "partyName",
          "type": "string"
        },
        {
          "internalType": "string",
          "name": "partyFlag",
          "type": "string"
        },
        {
          "internalType": "uint256",
          "name": "stateCode",
          "type": "uint256"
        }
      ],
      "stateMutability": "view",
      "type": "function",
      "constant": true
    },
    {
      "inputs": [],
      "name": "electionChief",
      "outputs": [
        {
          "internalType": "address",
          "name": "",
          "type": "address"
        }
      ],
      "stateMutability": "view",
      "type": "function",
      "constant": true
    },
    {
      "inputs": [
        {
          "internalType": "uint256",
          "name": "_aadharNumber",
          "type": "uint256"
        },
        {
          "internalType": "string",
          "name": "_voterName",
          "type": "string"
        },
        {
          "internalType": "uint256",
          "name": "_age",
          "type": "uint256"
        },
        {
          "internalType": "uint256",
          "name": "_stateCode",
          "type": "uint256"
        },
        {
          "internalType": "bool",
          "name": "_isAlive",
          "type": "bool"
        }
      ],
      "name": "regVoter",
      "outputs": [],
      "stateMutability": "nonpayable",
      "type": "function"
    },
    {
      "inputs": [
        {
          "internalType": "uint256",
          "name": "_nominationNumber",
          "type": "uint256"
        },
        {
          "internalType": "uint256",
          "name": "_currentTime",
          "type": "uint256"
        }
      ],
      "name": "vote",
      "outputs": [],
      "stateMutability": "nonpayable",
      "type": "function"
    },
    {
      "inputs": [],
      "name": "didCurrentVoterVoted",
      "outputs": [
        {
          "internalType": "bool",
          "name": "userVoted_",
          "type": "bool"
        },
        {
          "components": [
            {
              "internalType": "uint256",
              "name": "nominationNumber",
              "type": "uint256"
            },
            {
              "internalType": "string",
              "name": "candidateName",
              "type": "string"
            },
            {
              "internalType": "string",
              "name": "partyName",
              "type": "string"
            },
            {
              "internalType": "string",
              "name": "partyFlag",
              "type": "string"
            },
            {
              "internalType": "uint256",
              "name": "stateCode",
              "type": "uint256"
            }
          ],
          "internalType": "struct Voting.Candidate",
          "name": "candidate_",
          "type": "tuple"
        }
      ],
      "stateMutability": "view",
      "type": "function",
      "constant": true
    },
    {
      "inputs": [],
      "name": "didVoterReg",
      "outputs": [
        {
          "internalType": "bool",
          "name": "userReg_",
          "type": "bool"
        }
      ],
      "stateMutability": "view",
      "type": "function",
      "constant": true
    },
    {
      "inputs": [
        {
          "internalType": "uint256",
          "name": "_votingStartTime",
          "type": "uint256"
        },
        {
          "internalType": "uint256",
          "name": "_votingEndTime",
          "type": "uint256"
        }
      ],
      "name": "startElection",
      "outputs": [],
      "stateMutability": "nonpayable",
      "type": "function"
    },
    {
      "inputs": [],
      "name": "getVotingEndTime",
      "outputs": [
        {
          "internalType": "uint256",
          "name": "endTime_",
          "type": "uint256"
        }
      ],
      "stateMutability": "view",
      "type": "function",
      "constant": true
    },
    {
      "inputs": [
        {
          "internalType": "uint256",
          "name": "startTime_",
          "type": "uint256"
        },
        {
          "internalType": "uint256",
          "name": "currentTime_",
          "type": "uint256"
        }
      ],
      "name": "updateVotingStartTime",
      "outputs": [],
      "stateMutability": "nonpayable",
      "type": "function"
    },
    {
      "inputs": [
        {
          "internalType": "uint256",
          "name": "endTime_",
          "type": "uint256"
        },
        {
          "internalType": "uint256",
          "name": "currentTime_",
          "type": "uint256"
        }
      ],
      "name": "extendVotingTime",
      "outputs": [],
      "stateMutability": "nonpayable",
      "type": "function"
    },
    {
      "inputs": [
        {
          "internalType": "uint256",
          "name": "currentTime_",
          "type": "uint256"
        }
      ],
      "name": "getResults",
      "outputs": [
        {
          "components": [
            {
              "internalType": "string",
              "name": "candidateName",
              "type": "string"
            },
            {
              "internalType": "string",
              "name": "partyName",
              "type": "string"
            },
            {
              "internalType": "string",
              "name": "partyFlag",
              "type": "string"
            },
            {
              "internalType": "uint256",
              "name": "voteCount",
              "type": "uint256"
            },
            {
              "internalType": "uint256",
              "name": "nominationNumber",
              "type": "uint256"
            },
            {
              "internalType": "uint256",
              "name": "stateCode",
              "type": "uint256"
            }
          ],
          "internalType": "struct Voting.Result[]",
          "name": "",
          "type": "tuple[]"
        }
      ],
      "stateMutability": "view",
      "type": "function",
      "constant": true
    },
    {
      "inputs": [
        {
          "internalType": "uint256",
          "name": "_nominationNumber",
          "type": "uint256"
        },
        {
          "internalType": "string",
          "name": "_cadidateName",
          "type": "string"
        },
        {
          "internalType": "string",
          "name": "_partyName",
          "type": "string"
        },
        {
          "internalType": "string",
          "name": "_partyFlag",
          "type": "string"
        },
        {
          "internalType": "uint256",
          "name": "_stateCode",
          "type": "uint256"
        }
      ],
      "name": "addCandidate",
      "outputs": [],
      "stateMutability": "nonpayable",
      "type": "function"
    },
    {
      "inputs": [],
      "name": "getCandidate",
      "outputs": [
        {
          "components": [
            {
              "internalType": "uint256",
              "name": "nominationNumber",
              "type": "uint256"
            },
            {
              "internalType": "string",
              "name": "candidateName",
              "type": "string"
            },
            {
              "internalType": "string",
              "name": "partyName",
              "type": "string"
            },
            {
              "internalType": "string",
              "name": "partyFlag",
              "type": "string"
            },
            {
              "internalType": "uint256",
              "name": "stateCode",
              "type": "uint256"
            }
          ],
          "internalType": "struct Voting.Candidate[]",
          "name": "",
          "type": "tuple[]"
        }
      ],
      "stateMutability": "view",
      "type": "function",
      "constant": true
    }
  ],
  "bytecode": "0x6080604052600160085534801561001557600080fd5b5033600460006101000a81548173ffffffffffffffffffffffffffffffffffffffff021916908373ffffffffffffffffffffffffffffffffffffffff160217905550612525806100666000396000f3fe608060405234801561001057600080fd5b50600436106100cf5760003560e01c806365e0647d1161008c57806381a60c0d1161006657806381a60c0d146101f1578063b1bf87b014610221578063b384abef1461023f578063b9d845521461025b576100cf565b806365e0647d1461019757806370218b85146101b557806376c5ee01146101d3576100cf565b806301971538146100d45780630c54b463146100f35780631de43c4b1461010f57806337d1e4871461014357806342b4a8b01461015f5780635d816e221461017b575b600080fd5b6100dc610277565b6040516100ea92919061195e565b60405180910390f35b61010d600480360381019061010891906119c4565b610501565b005b61012960048036038101906101249190611a04565b6105a3565b60405161013a959493929190611a8a565b60405180910390f35b61015d60048036038101906101589190611b83565b610781565b005b61017960048036038101906101749190611c1d565b6108a4565b005b610195600480360381019061019091906119c4565b610bbd565b005b61019f610c74565b6040516101ac9190611d3a565b60405180910390f35b6101bd610c9a565b6040516101ca9190611e9b565b60405180910390f35b6101db610ec3565b6040516101e89190611ebd565b60405180910390f35b61020b60048036038101906102069190611a04565b610f0f565b6040516102189190612031565b60405180910390f35b61022961127b565b6040516102369190612053565b60405180910390f35b610259600480360381019061025491906119c4565b611285565b005b610275600480360381019061027091906119c4565b6115cf565b005b6000610281611678565b6000600260003373ffffffffffffffffffffffffffffffffffffffff1673ffffffffffffffffffffffffffffffffffffffff168152602001908152602001600020600501541415915081156104fd5760016000600260003373ffffffffffffffffffffffffffffffffffffffff1673ffffffffffffffffffffffffffffffffffffffff1681526020019081526020016000206005015481526020019081526020016000206040518060a00160405290816000820154815260200160018201805461034a9061209d565b80601f01602080910402602001604051908101604052809291908181526020018280546103769061209d565b80156103c35780601f10610398576101008083540402835291602001916103c3565b820191906000526020600020905b8154815290600101906020018083116103a657829003601f168201915b505050505081526020016002820180546103dc9061209d565b80601f01602080910402602001604051908101604052809291908181526020018280546104089061209d565b80156104555780601f1061042a57610100808354040283529160200191610455565b820191906000526020600020905b81548152906001019060200180831161043857829003601f168201915b5050505050815260200160038201805461046e9061209d565b80601f016020809104026020016040519081016040528092919081815260200182805461049a9061209d565b80156104e75780601f106104bc576101008083540402835291602001916104e7565b820191906000526020600020905b8154815290600101906020018083116104ca57829003601f168201915b5050505050815260200160048201548152505090505b9091565b600460009054906101000a900473ffffffffffffffffffffffffffffffffffffffff1673ffffffffffffffffffffffffffffffffffffffff163373ffffffffffffffffffffffffffffffffffffffff1614610591576040517f08c379a00000000000000000000000000000000000000000000000000000000081526004016105889061211b565b60405180910390fd5b81600581905550806006819055505050565b600081815481106105b357600080fd5b90600052602060002090600502016000915090508060000154908060010180546105dc9061209d565b80601f01602080910402602001604051908101604052809291908181526020018280546106089061209d565b80156106555780601f1061062a57610100808354040283529160200191610655565b820191906000526020600020905b81548152906001019060200180831161063857829003601f168201915b50505050509080600201805461066a9061209d565b80601f01602080910402602001604051908101604052809291908181526020018280546106969061209d565b80156106e35780601f106106b8576101008083540402835291602001916106e3565b820191906000526020600020905b8154815290600101906020018083116106c657829003601f168201915b5050505050908060030180546106f89061209d565b80601f01602080910402602001604051908101604052809291908181526020018280546107249061209d565b80156107715780601f1061074657610100808354040283529160200191610771565b820191906000526020600020905b81548152906001019060200180831161075457829003601f168201915b5050505050908060040154905085565b6040518060c0016040528087815260200186868080601f016020809104026020016040519081016040528093929190818152602001838380828437600081840152601f19601f82011690508083019250505050505050815260200184815260200183815260200182151581526020016000815250600260003373ffffffffffffffffffffffffffffffffffffffff1673ffffffffffffffffffffffffffffffffffffffff16815260200190815260200160002060008201518160000155602082015181600101908051906020019061085a9291906116a7565b50604082015181600201556060820151816003015560808201518160040160006101000a81548160ff02191690831515021790555060a08201518160050155905050505050505050565b600460009054906101000a900473ffffffffffffffffffffffffffffffffffffffff1673ffffffffffffffffffffffffffffffffffffffff163373ffffffffffffffffffffffffffffffffffffffff1614610934576040517f08c379a000000000000000000000000000000000000000000000000000000000815260040161092b9061211b565b60405180910390fd5b60006040518060a001604052808a815260200189898080601f016020809104026020016040519081016040528093929190818152602001838380828437600081840152601f19601f82011690508083019250505050505050815260200187878080601f016020809104026020016040519081016040528093929190818152602001838380828437600081840152601f19601f82011690508083019250505050505050815260200185858080601f016020809104026020016040519081016040528093929190818152602001838380828437600081840152601f19601f820116905080830192505050505050508152602001838152509080600181540180825580915050600190039060005260206000209060050201600090919091909150600082015181600001556020820151816001019080519060200190610a789291906116a7565b506040820151816002019080519060200190610a959291906116a7565b506060820151816003019080519060200190610ab29291906116a7565b5060808201518160040155505060005b600080549050811015610bb25760008181548110610ae357610ae261213b565b5b906000526020600020906005020160016000808481548110610b0857610b0761213b565b5b9060005260206000209060050201600001548152602001908152602001600020600082015481600001556001820181600101908054610b469061209d565b610b5192919061172d565b506002820181600201908054610b669061209d565b610b7192919061172d565b506003820181600301908054610b869061209d565b610b9192919061172d565b50600482015481600401559050508080610baa90612199565b915050610ac2565b505050505050505050565b600460009054906101000a900473ffffffffffffffffffffffffffffffffffffffff1673ffffffffffffffffffffffffffffffffffffffff163373ffffffffffffffffffffffffffffffffffffffff1614610c4d576040517f08c379a0000000000000000000000000000000000000000000000000000000008152600401610c449061211b565b60405180910390fd5b8060055410610c5b57600080fd5b8060065411610c6957600080fd5b816006819055505050565b600460009054906101000a900473ffffffffffffffffffffffffffffffffffffffff1681565b60606000805480602002602001604051908101604052809291908181526020016000905b82821015610eba57838290600052602060002090600502016040518060a001604052908160008201548152602001600182018054610cfb9061209d565b80601f0160208091040260200160405190810160405280929190818152602001828054610d279061209d565b8015610d745780601f10610d4957610100808354040283529160200191610d74565b820191906000526020600020905b815481529060010190602001808311610d5757829003601f168201915b50505050508152602001600282018054610d8d9061209d565b80601f0160208091040260200160405190810160405280929190818152602001828054610db99061209d565b8015610e065780601f10610ddb57610100808354040283529160200191610e06565b820191906000526020600020905b815481529060010190602001808311610de957829003601f168201915b50505050508152602001600382018054610e1f9061209d565b80601f0160208091040260200160405190810160405280929190818152602001828054610e4b9061209d565b8015610e985780601f10610e6d57610100808354040283529160200191610e98565b820191906000526020600020905b815481529060010190602001808311610e7b57829003601f168201915b5050505050815260200160048201548152505081526020019060010190610cbe565b50505050905090565b600080600260003373ffffffffffffffffffffffffffffffffffffffff1673ffffffffffffffffffffffffffffffffffffffff1681526020019081526020016000206000015414905090565b60608160065410610f1f57600080fd5b6000808054905067ffffffffffffffff811115610f3f57610f3e6121e2565b5b604051908082528060200260200182016040528015610f7857816020015b610f656117ba565b815260200190600190039081610f5d5790505b50905060005b600080549050811015611271576040518060c0016040528060008381548110610faa57610fa961213b565b5b90600052602060002090600502016001018054610fc69061209d565b80601f0160208091040260200160405190810160405280929190818152602001828054610ff29061209d565b801561103f5780601f106110145761010080835404028352916020019161103f565b820191906000526020600020905b81548152906001019060200180831161102257829003601f168201915b505050505081526020016000838154811061105d5761105c61213b565b5b906000526020600020906005020160020180546110799061209d565b80601f01602080910402602001604051908101604052809291908181526020018280546110a59061209d565b80156110f25780601f106110c7576101008083540402835291602001916110f2565b820191906000526020600020905b8154815290600101906020018083116110d557829003601f168201915b50505050508152602001600083815481106111105761110f61213b565b5b9060005260206000209060050201600301805461112c9061209d565b80601f01602080910402602001604051908101604052809291908181526020018280546111589061209d565b80156111a55780601f1061117a576101008083540402835291602001916111a5565b820191906000526020600020905b81548152906001019060200180831161118857829003601f168201915b50505050508152602001600360008085815481106111c6576111c561213b565b5b906000526020600020906005020160000154815260200190815260200160002054815260200160008381548110611200576111ff61213b565b5b90600052602060002090600502016000015481526020016000838154811061122b5761122a61213b565b5b9060005260206000209060050201600401548152508282815181106112535761125261213b565b5b6020026020010181905250808061126990612199565b915050610f7e565b5080915050919050565b6000600654905090565b806005548110156112cb576040517f08c379a00000000000000000000000000000000000000000000000000000000081526004016112c29061225d565b60405180910390fd5b600654811115611310576040517f08c379a0000000000000000000000000000000000000000000000000000000008152600401611307906122c9565b60405180910390fd5b826012600260003373ffffffffffffffffffffffffffffffffffffffff1673ffffffffffffffffffffffffffffffffffffffff168152602001908152602001600020600201541015611397576040517f08c379a000000000000000000000000000000000000000000000000000000000815260040161138e90612335565b60405180910390fd5b600260003373ffffffffffffffffffffffffffffffffffffffff1673ffffffffffffffffffffffffffffffffffffffff16815260200190815260200160002060040160009054906101000a900460ff16611426576040517f08c379a000000000000000000000000000000000000000000000000000000000815260040161141d906123a1565b60405180910390fd5b6000600260003373ffffffffffffffffffffffffffffffffffffffff1673ffffffffffffffffffffffffffffffffffffffff16815260200190815260200160002060050154146114ab576040517f08c379a00000000000000000000000000000000000000000000000000000000081526004016114a29061240d565b60405180910390fd5b600260003373ffffffffffffffffffffffffffffffffffffffff1673ffffffffffffffffffffffffffffffffffffffff16815260200190815260200160002060030154600160008381526020019081526020016000206004015414611545576040517f08c379a000000000000000000000000000000000000000000000000000000000815260040161153c90612479565b60405180910390fd5b83600260003373ffffffffffffffffffffffffffffffffffffffff1673ffffffffffffffffffffffffffffffffffffffff168152602001908152602001600020600501819055506000600360008681526020019081526020016000205490506001816115b19190612499565b60036000878152602001908152602001600020819055505050505050565b600460009054906101000a900473ffffffffffffffffffffffffffffffffffffffff1673ffffffffffffffffffffffffffffffffffffffff163373ffffffffffffffffffffffffffffffffffffffff161461165f576040517f08c379a00000000000000000000000000000000000000000000000000000000081526004016116569061211b565b60405180910390fd5b806005541161166d57600080fd5b816005819055505050565b6040518060a0016040528060008152602001606081526020016060815260200160608152602001600081525090565b8280546116b39061209d565b90600052602060002090601f0160209004810192826116d5576000855561171c565b82601f106116ee57805160ff191683800117855561171c565b8280016001018555821561171c579182015b8281111561171b578251825591602001919060010190611700565b5b50905061172991906117f0565b5090565b8280546117399061209d565b90600052602060002090601f01602090048101928261175b57600085556117a9565b82601f1061176c57805485556117a9565b828001600101855582156117a957600052602060002091601f016020900482015b828111156117a857825482559160010191906001019061178d565b5b5090506117b691906117f0565b5090565b6040518060c001604052806060815260200160608152602001606081526020016000815260200160008152602001600081525090565b5b808211156118095760008160009055506001016117f1565b5090565b60008115159050919050565b6118228161180d565b82525050565b6000819050919050565b61183b81611828565b82525050565b600081519050919050565b600082825260208201905092915050565b60005b8381101561187b578082015181840152602081019050611860565b8381111561188a576000848401525b50505050565b6000601f19601f8301169050919050565b60006118ac82611841565b6118b6818561184c565b93506118c681856020860161185d565b6118cf81611890565b840191505092915050565b600060a0830160008301516118f26000860182611832565b506020830151848203602086015261190a82826118a1565b9150506040830151848203604086015261192482826118a1565b9150506060830151848203606086015261193e82826118a1565b91505060808301516119536080860182611832565b508091505092915050565b60006040820190506119736000830185611819565b818103602083015261198581846118da565b90509392505050565b600080fd5b600080fd5b6119a181611828565b81146119ac57600080fd5b50565b6000813590506119be81611998565b92915050565b600080604083850312156119db576119da61198e565b5b60006119e9858286016119af565b92505060206119fa858286016119af565b9150509250929050565b600060208284031215611a1a57611a1961198e565b5b6000611a28848285016119af565b91505092915050565b611a3a81611828565b82525050565b600082825260208201905092915050565b6000611a5c82611841565b611a668185611a40565b9350611a7681856020860161185d565b611a7f81611890565b840191505092915050565b600060a082019050611a9f6000830188611a31565b8181036020830152611ab18187611a51565b90508181036040830152611ac58186611a51565b90508181036060830152611ad98185611a51565b9050611ae86080830184611a31565b9695505050505050565b600080fd5b600080fd5b600080fd5b60008083601f840112611b1757611b16611af2565b5b8235905067ffffffffffffffff811115611b3457611b33611af7565b5b602083019150836001820283011115611b5057611b4f611afc565b5b9250929050565b611b608161180d565b8114611b6b57600080fd5b50565b600081359050611b7d81611b57565b92915050565b60008060008060008060a08789031215611ba057611b9f61198e565b5b6000611bae89828a016119af565b965050602087013567ffffffffffffffff811115611bcf57611bce611993565b5b611bdb89828a01611b01565b95509550506040611bee89828a016119af565b9350506060611bff89828a016119af565b9250506080611c1089828a01611b6e565b9150509295509295509295565b60008060008060008060008060a0898b031215611c3d57611c3c61198e565b5b6000611c4b8b828c016119af565b985050602089013567ffffffffffffffff811115611c6c57611c6b611993565b5b611c788b828c01611b01565b9750975050604089013567ffffffffffffffff811115611c9b57611c9a611993565b5b611ca78b828c01611b01565b9550955050606089013567ffffffffffffffff811115611cca57611cc9611993565b5b611cd68b828c01611b01565b93509350506080611ce98b828c016119af565b9150509295985092959890939650565b600073ffffffffffffffffffffffffffffffffffffffff82169050919050565b6000611d2482611cf9565b9050919050565b611d3481611d19565b82525050565b6000602082019050611d4f6000830184611d2b565b92915050565b600081519050919050565b600082825260208201905092915050565b6000819050602082019050919050565b600060a083016000830151611d996000860182611832565b5060208301518482036020860152611db182826118a1565b91505060408301518482036040860152611dcb82826118a1565b91505060608301518482036060860152611de582826118a1565b9150506080830151611dfa6080860182611832565b508091505092915050565b6000611e118383611d81565b905092915050565b6000602082019050919050565b6000611e3182611d55565b611e3b8185611d60565b935083602082028501611e4d85611d71565b8060005b85811015611e895784840389528151611e6a8582611e05565b9450611e7583611e19565b925060208a01995050600181019050611e51565b50829750879550505050505092915050565b60006020820190508181036000830152611eb58184611e26565b905092915050565b6000602082019050611ed26000830184611819565b92915050565b600081519050919050565b600082825260208201905092915050565b6000819050602082019050919050565b600060c0830160008301518482036000860152611f2182826118a1565b91505060208301518482036020860152611f3b82826118a1565b91505060408301518482036040860152611f5582826118a1565b9150506060830151611f6a6060860182611832565b506080830151611f7d6080860182611832565b5060a0830151611f9060a0860182611832565b508091505092915050565b6000611fa78383611f04565b905092915050565b6000602082019050919050565b6000611fc782611ed8565b611fd18185611ee3565b935083602082028501611fe385611ef4565b8060005b8581101561201f57848403895281516120008582611f9b565b945061200b83611faf565b925060208a01995050600181019050611fe7565b50829750879550505050505092915050565b6000602082019050818103600083015261204b8184611fbc565b905092915050565b60006020820190506120686000830184611a31565b92915050565b7f4e487b7100000000000000000000000000000000000000000000000000000000600052602260045260246000fd5b600060028204905060018216806120b557607f821691505b602082108114156120c9576120c861206e565b5b50919050565b7f4e6f7420456c656374696f6e2043686965660000000000000000000000000000600082015250565b6000612105601283611a40565b9150612110826120cf565b602082019050919050565b60006020820190508181036000830152612134816120f8565b9050919050565b7f4e487b7100000000000000000000000000000000000000000000000000000000600052603260045260246000fd5b7f4e487b7100000000000000000000000000000000000000000000000000000000600052601160045260246000fd5b60006121a482611828565b91507fffffffffffffffffffffffffffffffffffffffffffffffffffffffffffffffff8214156121d7576121d661216a565b5b600182019050919050565b7f4e487b7100000000000000000000000000000000000000000000000000000000600052604160045260246000fd5b7f566f74696e67206973206e6f7420737461727465640000000000000000000000600082015250565b6000612247601583611a40565b915061225282612211565b602082019050919050565b600060208201905081810360008301526122768161223a565b9050919050565b7f566f74696e6720697320656e6465640000000000000000000000000000000000600082015250565b60006122b3600f83611a40565b91506122be8261227d565b602082019050919050565b600060208201905081810360008301526122e2816122a6565b9050919050565b7f566f74657220697320756e646572203138000000000000000000000000000000600082015250565b600061231f601183611a40565b915061232a826122e9565b602082019050919050565b6000602082019050818103600083015261234e81612312565b9050919050565b7f566f746572206973204465616400000000000000000000000000000000000000600082015250565b600061238b600d83611a40565b915061239682612355565b602082019050919050565b600060208201905081810360008301526123ba8161237e565b9050919050565b7f566f746572206973206e6f7420766f7465642079657400000000000000000000600082015250565b60006123f7601683611a40565b9150612402826123c1565b602082019050919050565b60006020820190508181036000830152612426816123ea565b9050919050565b7f566f74657220766f74657320776865726520746865206c697665000000000000600082015250565b6000612463601a83611a40565b915061246e8261242d565b602082019050919050565b6000602082019050818103600083015261249281612456565b9050919050565b60006124a482611828565b91506124af83611828565b9250827fffffffffffffffffffffffffffffffffffffffffffffffffffffffffffffffff038211156124e4576124e361216a565b5b82820190509291505056fea2646970667358221220432f7c0fd273e575ff4789b37ea04733cff82bbd14b55ed26d4cbe605d2af87e64736f6c63430008090033",
  "immutableReferences": {},
  "source": "// SPDX-License-Identifier: GPL-3.0\r\npragma solidity >=0.4.16 <0.9.0;\r\n\r\ncontract Voting {\r\n    struct Voter {\r\n        uint aadharNumber;\r\n        string voterName;\r\n        uint age;\r\n        uint stateCode;\r\n        bool isAlive;\r\n        uint votedTo;\r\n    }\r\n\r\n    struct Candidate {\r\n        uint nominationNumber;\r\n        string candidateName;\r\n        string partyName;\r\n        string partyFlag;\r\n        uint stateCode;\r\n    }\r\n\r\n    struct Result {\r\n        string candidateName;\r\n        string partyName;\r\n        string partyFlag;\r\n        uint voteCount;\r\n        uint nominationNumber;\r\n        uint stateCode;\r\n    }\r\n\r\n    Candidate[] public candidate;\r\n    mapping(uint => Candidate) candidates;\r\n    mapping(address => Voter) voters;\r\n    mapping(uint => uint) internal votesCount;\r\n\r\n    address public electionChief;\r\n    uint private votingStartTime;\r\n    uint private votingEndTime;\r\n    uint noOfCandidate;\r\n    uint length = 1;\r\n\r\n    constructor() {\r\n        electionChief = msg.sender;\r\n    }\r\n\r\n    // Modifiers\r\n    modifier isElectionChief() {\r\n        require(msg.sender == electionChief, \"Not Election Chief\");\r\n        _;\r\n    }\r\n\r\n    modifier isVoterEligible(uint256 _nominationNumber) {\r\n        require(voters[msg.sender].age >= 18, \"Voter is under 18\");\r\n        require(voters[msg.sender].isAlive, \"Voter is Dead\");\r\n        require(voters[msg.sender].votedTo == 0, \"Voter is not voted yet\");\r\n        require(\r\n            candidates[_nominationNumber].stateCode ==\r\n                voters[msg.sender].stateCode,\r\n            \"Voter votes where the live\"\r\n        );\r\n        _;\r\n    }\r\n\r\n    modifier isVotingLinesAreOpen(uint256 _currentTime) {\r\n        require(_currentTime >= votingStartTime, \"Voting is not started\");\r\n        require(_currentTime <= votingEndTime, \"Voting is ended\");\r\n        _;\r\n    }\r\n\r\n    // =============================================================\r\n\r\n    // Add Voter\r\n    function regVoter(\r\n        uint _aadharNumber,\r\n        string calldata _voterName,\r\n        uint _age,\r\n        uint _stateCode,\r\n        bool _isAlive\r\n    ) external {\r\n        voters[msg.sender] = Voter(\r\n            _aadharNumber,\r\n            _voterName,\r\n            _age,\r\n            _stateCode,\r\n            _isAlive,\r\n            0\r\n        );\r\n    }\r\n\r\n    // Vote the voter\r\n    function vote(\r\n        uint _nominationNumber,\r\n        uint _currentTime\r\n    )\r\n        public\r\n        isVotingLinesAreOpen(_currentTime)\r\n        isVoterEligible(_nominationNumber)\r\n    {\r\n        voters[msg.sender].votedTo = _nominationNumber;\r\n\r\n        uint _voteCount = votesCount[_nominationNumber];\r\n        votesCount[_nominationNumber] = _voteCount + 1;\r\n    }\r\n\r\n    function didCurrentVoterVoted()\r\n        public\r\n        view\r\n        returns (bool userVoted_, Candidate memory candidate_)\r\n    {\r\n        userVoted_ = (voters[msg.sender].votedTo != 0);\r\n        if (userVoted_) candidate_ = candidates[voters[msg.sender].votedTo];\r\n    }\r\n\r\n    function didVoterReg() public view returns (bool userReg_) {\r\n        userReg_ = (voters[msg.sender].aadharNumber == 0);\r\n    }\r\n\r\n    // =============================================================\r\n\r\n    // Start Voting\r\n    function startElection(\r\n        uint256 _votingStartTime,\r\n        uint256 _votingEndTime\r\n    ) external isElectionChief {\r\n        votingStartTime = _votingStartTime;\r\n        votingEndTime = _votingEndTime;\r\n    }\r\n\r\n    // get Voting end time\r\n    function getVotingEndTime() public view returns (uint256 endTime_) {\r\n        endTime_ = votingEndTime;\r\n    }\r\n\r\n    // update Voting start time\r\n    function updateVotingStartTime(\r\n        uint256 startTime_,\r\n        uint256 currentTime_\r\n    ) public isElectionChief {\r\n        require(votingStartTime > currentTime_);\r\n        votingStartTime = startTime_;\r\n    }\r\n\r\n    // Extend Voting end time\r\n    function extendVotingTime(\r\n        uint256 endTime_,\r\n        uint256 currentTime_\r\n    ) public isElectionChief {\r\n        require(votingStartTime < currentTime_);\r\n        require(votingEndTime > currentTime_);\r\n        votingEndTime = endTime_;\r\n    }\r\n\r\n    // =============================================================\r\n\r\n    // Result\r\n    function getResults(\r\n        uint currentTime_\r\n    ) public view returns (Result[] memory) {\r\n        require(votingEndTime < currentTime_);\r\n        Result[] memory resultsList_ = new Result[](candidate.length);\r\n        for (uint256 i = 0; i < candidate.length; i++) {\r\n            resultsList_[i] = Result({\r\n                candidateName: candidate[i].candidateName,\r\n                partyName: candidate[i].partyName,\r\n                partyFlag: candidate[i].partyFlag,\r\n                nominationNumber: candidate[i].nominationNumber,\r\n                stateCode: candidate[i].stateCode,\r\n                voteCount: votesCount[candidate[i].nominationNumber]\r\n            });\r\n        }\r\n        return resultsList_;\r\n    }\r\n\r\n    // =============================================================\r\n\r\n    // Add Cadidate\r\n    function addCandidate(\r\n        uint _nominationNumber,\r\n        string calldata _cadidateName,\r\n        string calldata _partyName,\r\n        string calldata _partyFlag,\r\n        uint _stateCode\r\n    ) external isElectionChief {\r\n        candidate.push(\r\n            Candidate({\r\n                nominationNumber: _nominationNumber,\r\n                candidateName: _cadidateName,\r\n                partyName: _partyName,\r\n                partyFlag: _partyFlag,\r\n                stateCode: _stateCode\r\n            })\r\n        );\r\n\r\n        for (uint i = 0; i < candidate.length; i++) {\r\n            candidates[candidate[i].nominationNumber] = candidate[i];\r\n        }\r\n    }\r\n\r\n    // Get Cadidate\r\n    function getCandidate() external view returns (Candidate[] memory) {\r\n        return candidate;\r\n    }\r\n}\r\n",
  "sourcePath": "E:\\BlockChain\\DAPP\\VotingSystem\\contracts\\Voting.sol",
  "compiler": {
    "name": "solc",
    "version": "0.8.9+commit.e5eed63a.Emscripten.clang"
  },
  "schemaVersion": "3.4.14",
  "updatedAt": "2023-07-24T15:28:14.045Z",
  "networkType": "ethereum",
  "devdoc": {
    "kind": "dev",
    "methods": {},
    "version": 1
  },
  "userdoc": {
    "kind": "user",
    "methods": {},
    "version": 1
  }
}